{
  "_format": "hh-sol-artifact-1",
  "contractName": "Polemarch",
  "sourceName": "contracts/protocol/polemarch/Polemarch.sol",
  "abi": [
    {
      "anonymous": false,
      "inputs": [
        {
          "indexed": true,
          "internalType": "uint128",
          "name": "lineOfCreditId",
          "type": "uint128"
        },
        {
          "indexed": false,
          "internalType": "uint128",
          "name": "rate",
          "type": "uint128"
        },
        {
          "indexed": true,
          "internalType": "address",
          "name": "borrower",
          "type": "address"
        },
        {
          "indexed": true,
          "internalType": "address",
          "name": "exchequer",
          "type": "address"
        },
        {
          "indexed": false,
          "internalType": "uint256",
          "name": "amount",
          "type": "uint256"
        }
      ],
      "name": "Borrow",
      "type": "event"
    },
    {
      "anonymous": false,
      "inputs": [
        {
          "indexed": true,
          "internalType": "uint128",
          "name": "lineOfCreditId",
          "type": "uint128"
        },
        {
          "indexed": true,
          "internalType": "address",
          "name": "borrower",
          "type": "address"
        },
        {
          "indexed": true,
          "internalType": "address",
          "name": "exchequer",
          "type": "address"
        },
        {
          "indexed": false,
          "internalType": "uint40",
          "name": "expirationTimestamp",
          "type": "uint40"
        }
      ],
      "name": "CloseLineOfCredit",
      "type": "event"
    },
    {
      "anonymous": false,
      "inputs": [
        {
          "indexed": true,
          "internalType": "uint128",
          "name": "id",
          "type": "uint128"
        },
        {
          "indexed": false,
          "internalType": "uint128",
          "name": "rate",
          "type": "uint128"
        },
        {
          "indexed": true,
          "internalType": "address",
          "name": "borrower",
          "type": "address"
        },
        {
          "indexed": true,
          "internalType": "address",
          "name": "exchequer",
          "type": "address"
        },
        {
          "indexed": false,
          "internalType": "uint256",
          "name": "borrowMax",
          "type": "uint256"
        },
        {
          "indexed": false,
          "internalType": "uint40",
          "name": "expirationTimestamp",
          "type": "uint40"
        }
      ],
      "name": "CreateLineOfCredit",
      "type": "event"
    },
    {
      "anonymous": false,
      "inputs": [
        {
          "indexed": true,
          "internalType": "uint128",
          "name": "lineOfCreditId",
          "type": "uint128"
        },
        {
          "indexed": true,
          "internalType": "address",
          "name": "borrower",
          "type": "address"
        },
        {
          "indexed": true,
          "internalType": "address",
          "name": "exchequer",
          "type": "address"
        },
        {
          "indexed": false,
          "internalType": "uint256",
          "name": "remainingBalance",
          "type": "uint256"
        },
        {
          "indexed": false,
          "internalType": "uint40",
          "name": "expirationTimestamp",
          "type": "uint40"
        }
      ],
      "name": "Delinquent",
      "type": "event"
    },
    {
      "anonymous": false,
      "inputs": [
        {
          "indexed": true,
          "internalType": "address",
          "name": "exchequer",
          "type": "address"
        },
        {
          "indexed": true,
          "internalType": "address",
          "name": "user",
          "type": "address"
        },
        {
          "indexed": false,
          "internalType": "uint256",
          "name": "amount",
          "type": "uint256"
        }
      ],
      "name": "GrantSupply",
      "type": "event"
    },
    {
      "anonymous": false,
      "inputs": [
        {
          "indexed": false,
          "internalType": "uint8",
          "name": "version",
          "type": "uint8"
        }
      ],
      "name": "Initialized",
      "type": "event"
    },
    {
      "anonymous": false,
      "inputs": [
        {
          "indexed": true,
          "internalType": "address",
          "name": "previousOwner",
          "type": "address"
        },
        {
          "indexed": true,
          "internalType": "address",
          "name": "newOwner",
          "type": "address"
        }
      ],
      "name": "OwnershipTransferred",
      "type": "event"
    },
    {
      "anonymous": false,
      "inputs": [
        {
          "indexed": true,
          "internalType": "uint128",
          "name": "lineOfCreditId",
          "type": "uint128"
        },
        {
          "indexed": true,
          "internalType": "address",
          "name": "borrower",
          "type": "address"
        },
        {
          "indexed": true,
          "internalType": "address",
          "name": "exchequer",
          "type": "address"
        },
        {
          "indexed": false,
          "internalType": "uint256",
          "name": "amount",
          "type": "uint256"
        }
      ],
      "name": "Repay",
      "type": "event"
    },
    {
      "anonymous": false,
      "inputs": [
        {
          "indexed": true,
          "internalType": "address",
          "name": "exchequer",
          "type": "address"
        },
        {
          "indexed": true,
          "internalType": "address",
          "name": "user",
          "type": "address"
        },
        {
          "indexed": false,
          "internalType": "uint256",
          "name": "amount",
          "type": "uint256"
        }
      ],
      "name": "Supply",
      "type": "event"
    },
    {
      "anonymous": false,
      "inputs": [
        {
          "indexed": true,
          "internalType": "address",
          "name": "exchequer",
          "type": "address"
        },
        {
          "indexed": true,
          "internalType": "address",
          "name": "user",
          "type": "address"
        },
        {
          "indexed": false,
          "internalType": "uint256",
          "name": "amount",
          "type": "uint256"
        }
      ],
      "name": "Withdraw",
      "type": "event"
    },
    {
      "inputs": [
        {
          "internalType": "address",
          "name": "underlyingAsset",
          "type": "address"
        },
        {
          "internalType": "address",
          "name": "sTokenAddress",
          "type": "address"
        },
        {
          "internalType": "address",
          "name": "dTokenAddress",
          "type": "address"
        },
        {
          "internalType": "address",
          "name": "gTokenAddress",
          "type": "address"
        },
        {
          "internalType": "uint8",
          "name": "decimals",
          "type": "uint8"
        },
        {
          "internalType": "uint256",
          "name": "protocolBorrowFee",
          "type": "uint256"
        }
      ],
      "name": "addExchequer",
      "outputs": [],
      "stateMutability": "nonpayable",
      "type": "function"
    },
    {
      "inputs": [
        {
          "internalType": "address",
          "name": "underlyingAsset",
          "type": "address"
        },
        {
          "internalType": "uint256",
          "name": "amount",
          "type": "uint256"
        }
      ],
      "name": "borrow",
      "outputs": [],
      "stateMutability": "nonpayable",
      "type": "function"
    },
    {
      "inputs": [
        {
          "internalType": "address",
          "name": "underlyingAsset",
          "type": "address"
        },
        {
          "internalType": "address",
          "name": "borrower",
          "type": "address"
        }
      ],
      "name": "closeLineOfCredit",
      "outputs": [],
      "stateMutability": "nonpayable",
      "type": "function"
    },
    {
      "inputs": [
        {
          "internalType": "address",
          "name": "borrower",
          "type": "address"
        },
        {
          "internalType": "address",
          "name": "underlyingAsset",
          "type": "address"
        },
        {
          "internalType": "uint256",
          "name": "borrowMax",
          "type": "uint256"
        },
        {
          "internalType": "uint128",
          "name": "rate",
          "type": "uint128"
        },
        {
          "internalType": "uint40",
          "name": "termDays",
          "type": "uint40"
        }
      ],
      "name": "createLineOfCredit",
      "outputs": [],
      "stateMutability": "nonpayable",
      "type": "function"
    },
    {
      "inputs": [
        {
          "internalType": "address",
          "name": "underlyingAsset",
          "type": "address"
        }
      ],
      "name": "deleteExchequer",
      "outputs": [],
      "stateMutability": "nonpayable",
      "type": "function"
    },
    {
      "inputs": [
        {
          "internalType": "address",
          "name": "underlyingAsset",
          "type": "address"
        }
      ],
      "name": "getExchequer",
      "outputs": [
        {
          "components": [
            {
              "internalType": "uint128",
              "name": "supplyIndex",
              "type": "uint128"
            },
            {
              "internalType": "uint128",
              "name": "supplyRate",
              "type": "uint128"
            },
            {
              "internalType": "uint40",
              "name": "lastUpdateTimestamp",
              "type": "uint40"
            },
            {
              "internalType": "uint16",
              "name": "id",
              "type": "uint16"
            },
            {
              "internalType": "uint8",
              "name": "decimals",
              "type": "uint8"
            },
            {
              "internalType": "bool",
              "name": "active",
              "type": "bool"
            },
            {
              "internalType": "bool",
              "name": "borrowingEnabled",
              "type": "bool"
            },
            {
              "internalType": "uint256",
              "name": "protocolBorrowFee",
              "type": "uint256"
            },
            {
              "internalType": "uint256",
              "name": "totalDebt",
              "type": "uint256"
            },
            {
              "internalType": "uint256",
              "name": "borrowCap",
              "type": "uint256"
            },
            {
              "internalType": "uint256",
              "name": "supplyCap",
              "type": "uint256"
            },
            {
              "internalType": "uint256",
              "name": "collateralFactor",
              "type": "uint256"
            },
            {
              "internalType": "address",
              "name": "sTokenAddress",
              "type": "address"
            },
            {
              "internalType": "address",
              "name": "dTokenAddress",
              "type": "address"
            },
            {
              "internalType": "address",
              "name": "gTokenAddress",
              "type": "address"
            },
            {
              "internalType": "uint128",
              "name": "accruedToExchequerSafe",
              "type": "uint128"
            }
          ],
          "internalType": "struct Types.Exchequer",
          "name": "",
          "type": "tuple"
        }
      ],
      "stateMutability": "view",
      "type": "function"
    },
    {
      "inputs": [
        {
          "internalType": "address",
          "name": "borrower",
          "type": "address"
        }
      ],
      "name": "getLineOfCredit",
      "outputs": [
        {
          "components": [
            {
              "internalType": "uint256",
              "name": "borrowMax",
              "type": "uint256"
            },
            {
              "internalType": "address",
              "name": "underlyingAsset",
              "type": "address"
            },
            {
              "internalType": "uint40",
              "name": "lastRepaymentTimestamp",
              "type": "uint40"
            },
            {
              "internalType": "uint40",
              "name": "creationTimestamp",
              "type": "uint40"
            },
            {
              "internalType": "uint40",
              "name": "expirationTimestamp",
              "type": "uint40"
            },
            {
              "internalType": "uint128",
              "name": "id",
              "type": "uint128"
            },
            {
              "internalType": "bool",
              "name": "deliquent",
              "type": "bool"
            }
          ],
          "internalType": "struct Types.LineOfCredit",
          "name": "",
          "type": "tuple"
        }
      ],
      "stateMutability": "view",
      "type": "function"
    },
    {
      "inputs": [
        {
          "internalType": "address",
          "name": "underlyingAsset",
          "type": "address"
        }
      ],
      "name": "getNormalizedReturn",
      "outputs": [
        {
          "internalType": "uint256",
          "name": "",
          "type": "uint256"
        }
      ],
      "stateMutability": "view",
      "type": "function"
    },
    {
      "inputs": [
        {
          "internalType": "address",
          "name": "underlyingAsset",
          "type": "address"
        },
        {
          "internalType": "uint256",
          "name": "amount",
          "type": "uint256"
        }
      ],
      "name": "grantSupply",
      "outputs": [],
      "stateMutability": "nonpayable",
      "type": "function"
    },
    {
      "inputs": [],
      "name": "initialize",
      "outputs": [],
      "stateMutability": "nonpayable",
      "type": "function"
    },
    {
      "inputs": [
        {
          "internalType": "address",
          "name": "underlyingAsset",
          "type": "address"
        },
        {
          "internalType": "address",
          "name": "borrower",
          "type": "address"
        }
      ],
      "name": "markDelinquent",
      "outputs": [],
      "stateMutability": "nonpayable",
      "type": "function"
    },
    {
      "inputs": [],
      "name": "owner",
      "outputs": [
        {
          "internalType": "address",
          "name": "",
          "type": "address"
        }
      ],
      "stateMutability": "view",
      "type": "function"
    },
    {
      "inputs": [],
      "name": "renounceOwnership",
      "outputs": [],
      "stateMutability": "nonpayable",
      "type": "function"
    },
    {
      "inputs": [
        {
          "internalType": "address",
          "name": "underlyingAsset",
          "type": "address"
        },
        {
          "internalType": "uint256",
          "name": "amount",
          "type": "uint256"
        }
      ],
      "name": "repay",
      "outputs": [],
      "stateMutability": "nonpayable",
      "type": "function"
    },
    {
      "inputs": [
        {
          "internalType": "address",
          "name": "underlyingAsset",
          "type": "address"
        },
        {
          "internalType": "uint256",
          "name": "borrowCap",
          "type": "uint256"
        }
      ],
      "name": "setBorrowCap",
      "outputs": [],
      "stateMutability": "nonpayable",
      "type": "function"
    },
    {
      "inputs": [
        {
          "internalType": "address",
          "name": "underlyingAsset",
          "type": "address"
        },
        {
          "internalType": "bool",
          "name": "active",
          "type": "bool"
        }
      ],
      "name": "setExchequerActive",
      "outputs": [],
      "stateMutability": "nonpayable",
      "type": "function"
    },
    {
      "inputs": [
        {
          "internalType": "address",
          "name": "underlyingAsset",
          "type": "address"
        },
        {
          "internalType": "bool",
          "name": "enabled",
          "type": "bool"
        }
      ],
      "name": "setExchequerBorrowing",
      "outputs": [],
      "stateMutability": "nonpayable",
      "type": "function"
    },
    {
      "inputs": [
        {
          "internalType": "address",
          "name": "underlyingAsset",
          "type": "address"
        },
        {
          "internalType": "uint256",
          "name": "supplyCap",
          "type": "uint256"
        }
      ],
      "name": "setSupplyCap",
      "outputs": [],
      "stateMutability": "nonpayable",
      "type": "function"
    },
    {
      "inputs": [
        {
          "internalType": "address",
          "name": "governanceToken",
          "type": "address"
        }
      ],
      "name": "setThurmanToken",
      "outputs": [],
      "stateMutability": "nonpayable",
      "type": "function"
    },
    {
      "inputs": [
        {
          "internalType": "contract TimelockControllerUpgradeable",
          "name": "timelock",
          "type": "address"
        }
      ],
      "name": "setTimelock",
      "outputs": [],
      "stateMutability": "nonpayable",
      "type": "function"
    },
    {
      "inputs": [
        {
          "internalType": "address",
          "name": "underlyingAsset",
          "type": "address"
        },
        {
          "internalType": "uint256",
          "name": "amount",
          "type": "uint256"
        }
      ],
      "name": "supply",
      "outputs": [],
      "stateMutability": "nonpayable",
      "type": "function"
    },
    {
      "inputs": [
        {
          "internalType": "address",
          "name": "newOwner",
          "type": "address"
        }
      ],
      "name": "transferOwnership",
      "outputs": [],
      "stateMutability": "nonpayable",
      "type": "function"
    },
    {
      "inputs": [
        {
          "internalType": "address",
          "name": "underlyingAsset",
          "type": "address"
        },
        {
          "internalType": "uint256",
          "name": "amount",
          "type": "uint256"
        }
      ],
      "name": "withdraw",
      "outputs": [],
      "stateMutability": "nonpayable",
      "type": "function"
    }
  ],
  "bytecode": "0x608060405234801561001057600080fd5b50613ea4806100206000396000f3fe608060405234801561001057600080fd5b506004361061018d5760003560e01c8063a26f60dc116100e3578063ef2552621161008c578063f2fde38b11610066578063f2fde38b14610600578063f3fef3a314610613578063f5dcc2e51461062657600080fd5b8063ef25526214610425578063f2abeeb214610438578063f2b9fdb8146105ed57600080fd5b8063bdacb303116100bd578063bdacb303146103ec578063c8b59f12146103ff578063d14a09831461041257600080fd5b8063a26f60dc146103a5578063acaef679146103b8578063b87d4853146103d957600080fd5b806351618036116101455780638129fc1c1161011f5780638129fc1c1461036f57806381c2de84146103775780638da5cb5b1461038a57600080fd5b80635161803614610341578063571f03e514610354578063715018a61461036757600080fd5b806340f6728a1161017657806340f6728a1461030857806341ef41621461031b5780634b8a35291461032e57600080fd5b8063101d77e81461019257806322867d78146102f3575b600080fd5b6102716101a036600461393c565b6040805160e081018252600080825260208201819052918101829052606081018290526080810182905260a0810182905260c0810191909152506001600160a01b03908116600090815260676020908152604091829020825160e0810184528154815260018201549485169281019290925264ffffffffff600160a01b8504811693830193909352600160c81b9093048216606082015260029092015490811660808301526001600160801b036501000000000082041660a083015260ff600160a81b90910416151560c082015290565b6040516102ea9190600060e082019050825182526001600160a01b036020840151166020830152604083015164ffffffffff808216604085015280606086015116606085015280608086015116608085015250506001600160801b0360a08401511660a083015260c0830151151560c083015292915050565b60405180910390f35b610306610301366004613959565b610639565b005b610306610316366004613959565b61064b565b61030661032936600461393c565b610666565b61030661033c366004613959565b610690565b61030661034f366004613985565b61069e565b610306610362366004613959565b6106b4565b6103066106dc565b6103066106f0565b61030661038536600461393c565b610856565b6033546040516001600160a01b0390911681526020016102ea565b6103066103b33660046139cc565b61086b565b6103cb6103c636600461393c565b6108b3565b6040519081526020016102ea565b6103066103e7366004613a0f565b6108da565b6103066103fa36600461393c565b610964565b61030661040d366004613a81565b61098e565b610306610420366004613959565b610a0e565b610306610433366004613985565b610a36565b6105e061044636600461393c565b6040805161020081018252600080825260208201819052918101829052606081018290526080810182905260a0810182905260c0810182905260e08101829052610100810182905261012081018290526101408101829052610160810182905261018081018290526101a081018290526101c081018290526101e0810191909152506001600160a01b0390811660009081526065602090815260409182902082516102008101845281546001600160801b038082168352600160801b909104811693820193909352600182015464ffffffffff81169482019490945261ffff65010000000000850416606082015260ff670100000000000000850481166080830152600160401b85048116151560a08301526901000000000000000000909404909316151560c0840152600281015460e0840152600381015461010084015260048101546101208401526005810154610140840152600681015461016084015260078101548416610180840152600881015484166101a084015260098101549093166101c0830152600a909201549091166101e082015290565b6040516102ea9190613b00565b6103066105fb366004613959565b610a4c565b61030661060e36600461393c565b610a67565b610306610621366004613959565b610af4565b6103066106343660046139cc565b610b0f565b610647606560678484610b50565b5050565b6069546106479060659084906001600160a01b031684610d1f565b61066e610ede565b606980546001600160a01b0319166001600160a01b0392909216919091179055565b610647606560678484610f38565b6106a6610ede565b61064760656067838561115f565b6106bc610ede565b6001600160a01b0391909116600090815260656020526040902060050155565b6106e4610ede565b6106ee6000611332565b565b600054610100900460ff16158080156107105750600054600160ff909116105b8061072a5750303b15801561072a575060005460ff166001145b6107a15760405162461bcd60e51b815260206004820152602e60248201527f496e697469616c697a61626c653a20636f6e747261637420697320616c72656160448201527f647920696e697469616c697a656400000000000000000000000000000000000060648201526084015b60405180910390fd5b6000805460ff1916600117905580156107c4576000805461ff0019166101001790555b6107cc611384565b606a80547fffffffffffffffff0000ffffffffffffffffffffffffffffffffffffffffffff16760a000000000000000000000000000000000000000000001790558015610853576000805461ff0019169055604051600181527f7f26b83ff96e1f2b6a682f133852f6798a09c465da95921460cefb38474024989060200160405180910390a15b50565b61085e610ede565b61085360656066836113f7565b610873610ede565b6001600160a01b0382166000908152606560205260409020600101805469ff00000000000000000019166901000000000000000000831515021790555050565b6001600160a01b03811660009081526065602052604081206108d4906114d9565b92915050565b606a546001600160a01b031633146109345760405162461bcd60e51b815260206004820152600c60248201527f4e6f742074696d656c6f636b00000000000000000000000000000000000000006044820152606401610798565b610948606560676068548888888888611531565b6068805490600061095883613c4d565b91905055505050505050565b61096c610ede565b606a80546001600160a01b0319166001600160a01b0392909216919091179055565b610996610ede565b6109ca60656066888888888888606a60149054906101000a900461ffff16606a60169054906101000a900461ffff16611829565b15610a0657606a8054600160a01b900461ffff169060146109ea83613c68565b91906101000a81548161ffff021916908361ffff160217905550505b505050505050565b610a16610ede565b6001600160a01b0391909116600090815260656020526040902060040155565b610a3e610ede565b610647606560678385611ba1565b6069546106479060659084906001600160a01b031684611e17565b610a6f610ede565b6001600160a01b038116610aeb5760405162461bcd60e51b815260206004820152602660248201527f4f776e61626c653a206e6577206f776e657220697320746865207a65726f206160448201527f64647265737300000000000000000000000000000000000000000000000000006064820152608401610798565b61085381611332565b6069546106479060659084906001600160a01b031684612008565b610b17610ede565b6001600160a01b0382166000908152606560205260409020600101805468ff00000000000000001916600160401b831515021790555050565b6001600160a01b0382166000908152602085905260409020610b71816122d0565b610b7d818533856122d9565b6008810154604051632770a7eb60e21b8152336004820152602481018490526001600160a01b0390911690639dc29fac90604401600060405180830381600087803b158015610bcb57600080fd5b505af1158015610bdf573d6000803e3d6000fd5b5050505060078101546040516323b872dd60e01b81523360048201526001600160a01b03918216602482015260448101849052908416906323b872dd90606401602060405180830381600087803b158015610c3957600080fd5b505af1158015610c4d573d6000803e3d6000fd5b505050506040513d601f19601f82011682018060405250810190610c719190613c8a565b50610c7b816124c0565b33600081815260208681526040918290206001810180547fffffffffffffff0000000000ffffffffffffffffffffffffffffffffffffffff16600160a01b4264ffffffffff16021790556002015491518581526001600160a01b03871693926501000000000090046001600160801b0316917fee5fff05934069948fef32c35eccf028cdd06b6bca60b916e41fae115bfcfb90910160405180910390a45050505050565b6001600160a01b0383166000908152602085905260409020610d41818361269d565b60098101546040516323b872dd60e01b81523360048201526001600160a01b03918216602482015260448101849052908516906323b872dd90606401602060405180830381600087803b158015610d9757600080fd5b505af1158015610dab573d6000803e3d6000fd5b505050506040513d601f19601f82011682018060405250810190610dcf9190613c8a565b5060098101546040516340c10f1960e01b8152336004820152602481018490526001600160a01b03909116906340c10f1990604401600060405180830381600087803b158015610e1e57600080fd5b505af1158015610e32573d6000803e3d6000fd5b50506040516340c10f1960e01b8152336004820152602481018590526001600160a01b03861692506340c10f199150604401600060405180830381600087803b158015610e7e57600080fd5b505af1158015610e92573d6000803e3d6000fd5b50506040518481523392506001600160a01b03871691507f2514ed8d2f3acfb415749d0d657799edbbec45bf19f60b2c9f6367baac20716c906020015b60405180910390a35050505050565b6033546001600160a01b031633146106ee5760405162461bcd60e51b815260206004820181905260248201527f4f776e61626c653a2063616c6c6572206973206e6f7420746865206f776e65726044820152606401610798565b6001600160a01b03828116600090815260208690526040808220600881015491517f8c60239100000000000000000000000000000000000000000000000000000000815233600482015290939190911690638c60239190602401602060405180830381600087803b158015610fac57600080fd5b505af1158015610fc0573d6000803e3d6000fd5b505050506040513d601f19601f82011682018060405250810190610fe49190613ca7565b9050610fef826122d0565b610ffb8286338661272b565b60088201546040516340c10f1960e01b8152336004820152602481018590526001600160a01b03909116906340c10f1990604401600060405180830381600087803b15801561104957600080fd5b505af115801561105d573d6000803e3d6000fd5b5050505061106a826124c0565b60078201546040517f336d2692000000000000000000000000000000000000000000000000000000008152336004820152602481018590526001600160a01b039091169063336d269290604401600060405180830381600087803b1580156110d157600080fd5b505af11580156110e5573d6000803e3d6000fd5b505033600081815260208981526040918290206002015482516001600160801b0388811682529281018a90526001600160a01b038b16965093945065010000000000900416917feccbe104d192be289b50bffe64dcefd75cc3c6d2555630c0beb9b9752f8fc4fa91015b60405180910390a4505050505050565b6001600160a01b03811660009081526020859052604090206111828185856129f2565b60088101546040516370a0823160e01b81526001600160a01b03858116600483015260009216906370a082319060240160206040518083038186803b1580156111ca57600080fd5b505afa1580156111de573d6000803e3d6000fd5b505050506040513d601f19601f820116820180604052508101906112029190613cc4565b6001600160a01b0385811660009081526020889052604090819020600201805460ff60a81b1916600160a81b1790556009850154600786015491516323b872dd60e01b815290831660048201529082166024820152604481018390529192508416906323b872dd90606401602060405180830381600087803b15801561128757600080fd5b505af115801561129b573d6000803e3d6000fd5b505050506040513d601f19601f820116820180604052508101906112bf9190613c8a565b506001600160a01b038481166000818152602088815260409182902060020154825186815264ffffffffff821692810192909252938716936501000000000090046001600160801b0316917f5c65ce72cc4d9275989f57ed264da72270a1786b784922f1cc425682ac5e3a3d910161114f565b603380546001600160a01b038381166001600160a01b0319831681179093556040519116919082907f8be0079c531659141344cd1fd0a4f28419497f9722a3daafe3b4186f6b6457e090600090a35050565b600054610100900460ff166113ef5760405162461bcd60e51b815260206004820152602b60248201527f496e697469616c697a61626c653a20636f6e7472616374206973206e6f74206960448201526a6e697469616c697a696e6760a81b6064820152608401610798565b6106ee612b5e565b6001600160a01b038116600090815260208490526040902061141a838284612bd2565b506001600160a01b031660008181526020848152604080832060018101805465010000000000900461ffff16855295835290832080546001600160a01b0319908116909155938352949052808455825469ffffffffffffffffffff191690925560028301829055600383018290556004830182905560058301829055600683019190915560078201805482169055600882018054821690556009820180549091169055600a0180546fffffffffffffffffffffffffffffffff19169055565b600181015460009064ffffffffff16428114156114ff575050546001600160801b031690565b825461152a906001600160801b038082169161152491600160801b9091041684612e56565b90612e9b565b9392505050565b6001600160a01b038416600090815260208990526040812090611555828685612edf565b9050611565828a888a8986612f2e565b6001600160a01b03878116600081815260208c905260409081902060010180546001600160a01b0319168a8516179055600885015490517fbd84d6b700000000000000000000000000000000000000000000000000000000815260048101929092526001600160801b03871660248301529091169063bd84d6b790604401600060405180830381600087803b1580156115fd57600080fd5b505af1158015611611573d6000803e3d6000fd5b505050506001600160a01b038716600090815260208a90526040902060010180547fffff0000000000ffffffffffffffffffffffffffffffffffffffffffffffffff16600160c81b4264ffffffffff16021790556116728362015180613cdd565b6116839064ffffffffff1642613d0a565b6001600160a01b038816600090815260208b905260409020600201805464ffffffffff191664ffffffffff929092169190911790556116c3886001613d0a565b6001600160a01b03888116600090815260208c90526040908190206002810180547fffffffffffffffffffff0000000000000000000000000000000000ffffffffff16650100000000006001600160801b03969096169590950260ff60a81b19169490941790935591879055600984015491517f504863cd0000000000000000000000000000000000000000000000000000000081526004810184905291169063504863cd90602401600060405180830381600087803b15801561178657600080fd5b505af115801561179a573d6000803e3d6000fd5b505050506001600160a01b03878116600081815260208c81526040918290206002015482516001600160801b038a811682529281018b905264ffffffffff821693810193909352938a169365010000000000900416907fa762d316e8f4c815288e5add048146a78a05a11536b0c3730a39042e05b0b4e99060600160405180910390a450505050505050505050565b60006001600160a01b0389163b6118825760405162461bcd60e51b815260206004820152600c60248201527f4e4f545f434f4e545241435400000000000000000000000000000000000000006044820152606401610798565b6001600160a01b03898116600090815260208d9052604090206007015416156118ed5760405162461bcd60e51b815260206004820152601d60248201527f4558434845515545525f414c52454144595f494e495449414c495a45440000006044820152606401610798565b6001600160a01b03898116600090815260208d90526040812080546b033b2e3c9fd0803ce80000006fffffffffffffffffffffffffffffffff199091168117825560068201556007810180546001600160a01b03199081168d86161790915560088201805482168c8616179055600982018054909116938a16939093179092556001909101805467ff00000000000000191667010000000000000060ff891602179081905565010000000000900461ffff161515806119c55750600080805260208c905260409020546001600160a01b038b81169116145b90508015611a155760405162461bcd60e51b815260206004820152601760248201527f4558434845515545525f414c52454144595f41444445440000000000000000006044820152606401610798565b60005b8461ffff168161ffff161015611aba5761ffff8116600090815260208d905260409020546001600160a01b0316611aa8576001600160a01b038b16600081815260208f81526040808320600101805466ffff000000000019166501000000000061ffff979097169687021790559382528e905291822080546001600160a01b03191690911790559150611b939050565b80611ab281613c68565b915050611a18565b508261ffff168461ffff1610611b125760405162461bcd60e51b815260206004820152601860248201527f4e4f5f4d4f52455f52455345525645535f414c4c4f57454400000000000000006044820152606401610798565b50506001600160a01b038816600081815260208c815260408083206001808201805461ffff8a1665010000000000810266ffff00000000001990921691909117825586528f855292852080546001600160a01b0319168717905594909352908d90526002909101859055805468ff00000000000000001916600160401b1790555b9a9950505050505050505050565b6001600160a01b0381166000908152602085905260409020611bc48185856133ab565b60088101546040516370a0823160e01b81526001600160a01b03858116600483015260009216906370a082319060240160206040518083038186803b158015611c0c57600080fd5b505afa158015611c20573d6000803e3d6000fd5b505050506040513d601f19601f82011682018060405250810190611c449190613cc4565b90508015611ce357600982015460078301546040516323b872dd60e01b81526001600160a01b039283166004820152908216602482015260448101839052908416906323b872dd90606401602060405180830381600087803b158015611ca957600080fd5b505af1158015611cbd573d6000803e3d6000fd5b505050506040513d601f19601f82011682018060405250810190611ce19190613c8a565b505b6001600160a01b038416600090815260208690526040902054600383015411611d125760006003830155611d46565b6001600160a01b03841660009081526020869052604081205460038401805491929091611d40908490613d22565b90915550505b6001600160a01b03848116600081815260208881526040808320600281018054948255600190910180547fffff0000000000000000000000000000000000000000000000000000000000001690557fffffffffffffffffffff00000000000000000000000000000000000000000000841690555164ffffffffff8316808252650100000000009093046001600160801b0316949293928816929185917f3a407f7ee0659d425dd8697d41f9e51f4156bf3b45a5dffbc14d54249fcb45a9910160405180910390a45050505050505050565b6001600160a01b0383166000908152602085905260409020611e38816122d0565b611e428183613585565b60078101546040516323b872dd60e01b81523360048201526001600160a01b03918216602482015260448101849052908516906323b872dd90606401602060405180830381600087803b158015611e9857600080fd5b505af1158015611eac573d6000803e3d6000fd5b505050506040513d601f19601f82011682018060405250810190611ed09190613c8a565b50600781015481546040517f156e29f6000000000000000000000000000000000000000000000000000000008152336004820152602481018590526001600160801b0390911660448201526001600160a01b039091169063156e29f690606401600060405180830381600087803b158015611f4a57600080fd5b505af1158015611f5e573d6000803e3d6000fd5b50506040516340c10f1960e01b8152336004820152602481018590526001600160a01b03861692506340c10f199150604401600060405180830381600087803b158015611faa57600080fd5b505af1158015611fbe573d6000803e3d6000fd5b50505050611fcb816124c0565b60405182815233906001600160a01b038616907fd1cf3d156d5f8f0d50f6c122ed609cec09d35c9b9fb3fff6ea0959134dae424e90602001610ecf565b6001600160a01b0383166000908152602085905260409020612029816122d0565b805460078201546040517f1da24f3e0000000000000000000000000000000000000000000000000000000081523360048201526000926120d4926001600160801b03909116916001600160a01b0390911690631da24f3e9060240160206040518083038186803b15801561209c57600080fd5b505afa1580156120b0573d6000803e3d6000fd5b505050506040513d601f19601f820116820180604052508101906115249190613cc4565b600783015460038401546040517f2ece993600000000000000000000000000000000000000000000000000000000815233600482015260248101919091529192506000916001600160a01b0390911690632ece993690604401602060405180830381600087803b15801561214757600080fd5b505af115801561215b573d6000803e3d6000fd5b505050506040513d601f19601f8201168201806040525081019061217f9190613cc4565b905061218d838383876136f1565b600783015483546040517ff5298aca000000000000000000000000000000000000000000000000000000008152336004820152602481018790526001600160801b0390911660448201526001600160a01b039091169063f5298aca90606401600060405180830381600087803b15801561220657600080fd5b505af115801561221a573d6000803e3d6000fd5b5050604051632770a7eb60e21b8152336004820152602481018790526001600160a01b0388169250639dc29fac9150604401600060405180830381600087803b15801561226657600080fd5b505af115801561227a573d6000803e3d6000fd5b50505050612287836124c0565b60405184815233906001600160a01b038816907f9b1bfa7fa9ee420a16e124f794c35ac9f90472acc99140eb2f6447c714cad8eb9060200160405180910390a350505050505050565b6108538161381f565b806123175760405162461bcd60e51b815260206004820152600e60248201526d1253959053125117d05353d5539560921b6044820152606401610798565b6001840154600160401b900460ff166123675760405162461bcd60e51b81526020600482015260126024820152714558434845515545525f494e41435449564560701b6044820152606401610798565b6001600160a01b0382166000908152602084905260409020546123d65760405162461bcd60e51b815260206004820152602160248201527f555345525f444f45535f4e4f545f484156455f4c494e455f4f465f43524544496044820152601560fa1b6064820152608401610798565b6001600160a01b038216600090815260208490526040902060020154600160a81b900460ff16156124495760405162461bcd60e51b815260206004820152601660248201527f555345525f444542545f49535f44454c495155454e54000000000000000000006044820152606401610798565b6001600160a01b03821660009081526020849052604090206002015464ffffffffff1642106124ba5760405162461bcd60e51b815260206004820152601660248201527f4c494e455f4f465f4352454449545f45585049524544000000000000000000006044820152606401610798565b50505050565b6008810154604080517f18160ddd00000000000000000000000000000000000000000000000000000000815290516000926001600160a01b0316916318160ddd916004808301926020929190829003018186803b15801561252057600080fd5b505afa158015612534573d6000803e3d6000fd5b505050506040513d601f19601f820116820180604052508101906125589190613cc4565b905060008260070160009054906101000a90046001600160a01b03166001600160a01b03166318160ddd6040518163ffffffff1660e01b815260040160206040518083038186803b1580156125ac57600080fd5b505afa1580156125c0573d6000803e3d6000fd5b505050506040513d601f19601f820116820180604052508101906125e49190613cc4565b905060008360080160009054906101000a90046001600160a01b03166001600160a01b031663dbab5d856040518163ffffffff1660e01b8152600401602060405180830381600087803b15801561263a57600080fd5b505af115801561264e573d6000803e3d6000fd5b505050506040513d601f19601f820116820180604052508101906126729190613cc4565b905061267f8383836138b3565b84546001600160801b03918216600160801b02911617909355505050565b806126db5760405162461bcd60e51b815260206004820152600e60248201526d1253959053125117d05353d5539560921b6044820152606401610798565b6001820154600160401b900460ff166106475760405162461bcd60e51b81526020600482015260126024820152714558434845515545525f494e41435449564560701b6044820152606401610798565b806127695760405162461bcd60e51b815260206004820152600e60248201526d1253959053125117d05353d5539560921b6044820152606401610798565b6001840154600160401b900460ff166127b95760405162461bcd60e51b81526020600482015260126024820152714558434845515545525f494e41435449564560701b6044820152606401610798565b60018401546901000000000000000000900460ff1661281a5760405162461bcd60e51b815260206004820152601560248201527f424f52524f57494e475f4e4f545f454e41424c454400000000000000000000006044820152606401610798565b6001600160a01b0382166000908152602084905260409020546128895760405162461bcd60e51b815260206004820152602160248201527f555345525f444f45535f4e4f545f484156455f4c494e455f4f465f43524544496044820152601560fa1b6064820152608401610798565b6001600160a01b038216600090815260208490526040902060020154600160a81b900460ff16156128fc5760405162461bcd60e51b815260206004820152601760248201527f555345525f4841535f44454c495155454e545f444542540000000000000000006044820152606401610798565b6001600160a01b038281166000818152602086905260409081902054600888015491516370a0823160e01b815260048101939093529284929116906370a082319060240160206040518083038186803b15801561295857600080fd5b505afa15801561296c573d6000803e3d6000fd5b505050506040513d601f19601f820116820180604052508101906129909190613cc4565b61299a9190613d0a565b11156124495760405162461bcd60e51b815260206004820152602160248201527f555345525f43414e4e4f545f424f52524f575f4f5645525f4d41585f4c494d496044820152601560fa1b6064820152608401610798565b6001600160a01b03811660009081526020839052604090206002015464ffffffffff164211612a635760405162461bcd60e51b815260206004820152601e60248201527f4c494e455f4f465f4352454449545f4841535f4e4f545f4558504952454400006044820152606401610798565b6001830154612a8290600390670100000000000000900460ff16613d39565b612a8d90600a613e40565b60088401546040516370a0823160e01b81526001600160a01b038481166004830152909116906370a082319060240160206040518083038186803b158015612ad457600080fd5b505afa158015612ae8573d6000803e3d6000fd5b505050506040513d601f19601f82011682018060405250810190612b0c9190613cc4565b11612b595760405162461bcd60e51b815260206004820152601d60248201527f555345525f444542545f42414c414e43455f415050524f585f5a45524f0000006044820152606401610798565b505050565b600054610100900460ff16612bc95760405162461bcd60e51b815260206004820152602b60248201527f496e697469616c697a61626c653a20636f6e7472616374206973206e6f74206960448201526a6e697469616c697a696e6760a81b6064820152608401610798565b6106ee33611332565b6001600160a01b038116612c285760405162461bcd60e51b815260206004820152601660248201527f5a45524f5f414444524553535f4e4f545f56414c4944000000000000000000006044820152606401610798565b600182015465010000000000900461ffff16151580612c6057506000808052602084905260409020546001600160a01b038281169116145b612cac5760405162461bcd60e51b815260206004820152601060248201527f41535345545f4e4f545f4c4953544544000000000000000000000000000000006044820152606401610798565b8160070160009054906101000a90046001600160a01b03166001600160a01b03166318160ddd6040518163ffffffff1660e01b815260040160206040518083038186803b158015612cfc57600080fd5b505afa158015612d10573d6000803e3d6000fd5b505050506040513d601f19601f82011682018060405250810190612d349190613cc4565b15612d815760405162461bcd60e51b815260206004820152601660248201527f53544f4b454e5f535550504c595f4e4f545f5a45524f000000000000000000006044820152606401610798565b8160090160009054906101000a90046001600160a01b03166001600160a01b03166318160ddd6040518163ffffffff1660e01b815260040160206040518083038186803b158015612dd157600080fd5b505afa158015612de5573d6000803e3d6000fd5b505050506040513d601f19601f82011682018060405250810190612e099190613cc4565b15612b595760405162461bcd60e51b815260206004820152601660248201527f47544f4b454e5f535550504c595f4e4f545f5a45524f000000000000000000006044820152606401610798565b600080612e6a64ffffffffff841642613d22565b612e749085613e4f565b6301e1338090049050612e93816b033b2e3c9fd0803ce8000000613d0a565b949350505050565b600081156b019d971e4fe8401e740000001983900484111517612ebd57600080fd5b506b033b2e3c9fd0803ce800000091026b019d971e4fe8401e74000000010490565b600080612ef664ffffffffff841662015180613e4f565b90506000612f0786600201546138cd565b9050612f24612f1a836301e133806138e8565b6115248784612e9b565b9695505050505050565b6001600160a01b038316600090815260208690526040902060020154600160a81b900460ff1615612fa15760405162461bcd60e51b815260206004820152601760248201527f555345525f4841535f44454c495155454e545f444542540000000000000000006044820152606401610798565b81612fee5760405162461bcd60e51b815260206004820152601260248201527f494e56414c49445f424f52524f575f4d415800000000000000000000000000006044820152606401610798565b6001860154600160401b900460ff1661303e5760405162461bcd60e51b81526020600482015260126024820152714558434845515545525f494e41435449564560701b6044820152606401610798565b60018601546901000000000000000000900460ff1661309f5760405162461bcd60e51b815260206004820152601560248201527f424f52524f57494e475f4e4f545f454e41424c454400000000000000000000006044820152606401610798565b60078601546040516370a0823160e01b81526001600160a01b03918216600482015283918616906370a082319060240160206040518083038186803b1580156130e757600080fd5b505afa1580156130fb573d6000803e3d6000fd5b505050506040513d601f19601f8201168201806040525081019061311f9190613cc4565b10156131935760405162461bcd60e51b815260206004820152602360248201527f4e4f545f454e4f5547485f554e4445524c59494e475f41535345545f42414c4160448201527f4e434500000000000000000000000000000000000000000000000000000000006064820152608401610798565b85600401548287600301546131a89190613d0a565b1115806131b757506004860154155b6132285760405162461bcd60e51b8152602060048201526024808201527f4558434845515545525f4d5553545f535441595f42454c4f575f424f52524f5760448201527f5f434150000000000000000000000000000000000000000000000000000000006064820152608401610798565b600061324d8284896003015461323e9190613d0a565b6132489190613d0a565b6138cd565b60098801546040516370a0823160e01b81526001600160a01b0391821660048201529192506000916132e1916132da91908916906370a082319060240160206040518083038186803b1580156132a257600080fd5b505afa1580156132b6573d6000803e3d6000fd5b505050506040513d601f19601f820116820180604052508101906132489190613cc4565b83906138e8565b9050876006015481106133365760405162461bcd60e51b815260206004820152601560248201527f4e4f545f454e4f5547485f434f4c4c41544552414c00000000000000000000006044820152606401610798565b6001600160a01b0385811660009081526020899052604090206001015416156133a15760405162461bcd60e51b815260206004820181905260248201527f555345525f414c52454144595f4841535f424f52524f575f504f534954494f4e6044820152606401610798565b5050505050505050565b6001600160a01b038116600090815260208390526040902060020154600160a81b900460ff161561341e5760405162461bcd60e51b815260206004820152601660248201527f555345525f444542545f49535f44454c495155454e54000000000000000000006044820152606401610798565b6001600160a01b03811660009081526020839052604090206002015464ffffffffff16421161348f5760405162461bcd60e51b815260206004820152601e60248201527f4c494e455f4f465f4352454449545f4841535f4e4f545f4558504952454400006044820152606401610798565b60018301546134ae90600390670100000000000000900460ff16613d39565b6134b990600a613e40565b60088401546040516370a0823160e01b81526001600160a01b038481166004830152909116906370a082319060240160206040518083038186803b15801561350057600080fd5b505afa158015613514573d6000803e3d6000fd5b505050506040513d601f19601f820116820180604052508101906135389190613cc4565b10612b595760405162461bcd60e51b815260206004820152601d60248201527f555345525f444542545f42414c414e43455f49535f4e4f545f5a45524f0000006044820152606401610798565b806135c35760405162461bcd60e51b815260206004820152600e60248201526d1253959053125117d05353d5539560921b6044820152606401610798565b6001820154600160401b900460ff166136135760405162461bcd60e51b81526020600482015260126024820152714558434845515545525f494e41435449564560701b6044820152606401610798565b600582015415806136a5575081546007830154604080517fb1bf962d00000000000000000000000000000000000000000000000000000000815290518493613693936001600160801b03909116926001600160a01b039091169163b1bf962d91600480820192602092909190829003018186803b15801561209c57600080fd5b61369d9190613d0a565b826005015410155b6106475760405162461bcd60e51b815260206004820152601360248201527f535550504c595f4341505f4558434545444544000000000000000000000000006044820152606401610798565b8061372f5760405162461bcd60e51b815260206004820152600e60248201526d1253959053125117d05353d5539560921b6044820152606401610798565b8083101561377f5760405162461bcd60e51b815260206004820152601460248201527f555345525f42414c414e43455f544f4f5f4c4f570000000000000000000000006044820152606401610798565b6001840154600160401b900460ff166137cf5760405162461bcd60e51b81526020600482015260126024820152714558434845515545525f494e41435449564560701b6044820152606401610798565b818111156124ba5760405162461bcd60e51b815260206004820152601c60248201527f574954484452415741424c455f42414c414e43455f544f4f5f4c4f57000000006044820152606401610798565b80546001600160801b0380821691600160801b90041615613898578154600183015460009161386691600160801b9091046001600160801b03169064ffffffffff16612e56565b90506138728183612e9b565b83546fffffffffffffffffffffffffffffffff19166001600160801b0391909116178355505b50600101805464ffffffffff19164264ffffffffff16179055565b600080806138c186866138e8565b9050612f248482612e9b565b633b9aca0081810290810482146138e357600080fd5b919050565b600081156b033b2e3c9fd0803ce80000006002840419048411171561390c57600080fd5b506b033b2e3c9fd0803ce80000009190910260028204010490565b6001600160a01b038116811461085357600080fd5b60006020828403121561394e57600080fd5b813561152a81613927565b6000806040838503121561396c57600080fd5b823561397781613927565b946020939093013593505050565b6000806040838503121561399857600080fd5b82356139a381613927565b915060208301356139b381613927565b809150509250929050565b801515811461085357600080fd5b600080604083850312156139df57600080fd5b82356139ea81613927565b915060208301356139b3816139be565b6001600160801b038116811461085357600080fd5b600080600080600060a08688031215613a2757600080fd5b8535613a3281613927565b94506020860135613a4281613927565b9350604086013592506060860135613a59816139fa565b9150608086013564ffffffffff81168114613a7357600080fd5b809150509295509295909350565b60008060008060008060c08789031215613a9a57600080fd5b8635613aa581613927565b95506020870135613ab581613927565b94506040870135613ac581613927565b93506060870135613ad581613927565b9250608087013560ff81168114613aeb57600080fd5b8092505060a087013590509295509295509295565b81516001600160801b0316815261020081016020830151613b2c60208401826001600160801b03169052565b506040830151613b45604084018264ffffffffff169052565b506060830151613b5b606084018261ffff169052565b506080830151613b70608084018260ff169052565b5060a0830151613b8460a084018215159052565b5060c0830151613b9860c084018215159052565b5060e083810151908301526101008084015190830152610120808401519083015261014080840151908301526101608084015190830152610180808401516001600160a01b03908116918401919091526101a0808501518216908401526101c080850151909116908301526101e0928301516001600160801b0316929091019190915290565b7f4e487b7100000000000000000000000000000000000000000000000000000000600052601160045260246000fd5b6000600019821415613c6157613c61613c1e565b5060010190565b600061ffff80831681811415613c8057613c80613c1e565b6001019392505050565b600060208284031215613c9c57600080fd5b815161152a816139be565b600060208284031215613cb957600080fd5b815161152a816139fa565b600060208284031215613cd657600080fd5b5051919050565b600064ffffffffff80831681851681830481118215151615613d0157613d01613c1e565b02949350505050565b60008219821115613d1d57613d1d613c1e565b500190565b600082821015613d3457613d34613c1e565b500390565b600060ff821660ff841680821015613d5357613d53613c1e565b90039392505050565b600181815b80851115613d97578160001904821115613d7d57613d7d613c1e565b80851615613d8a57918102915b93841c9390800290613d61565b509250929050565b600082613dae575060016108d4565b81613dbb575060006108d4565b8160018114613dd15760028114613ddb57613df7565b60019150506108d4565b60ff841115613dec57613dec613c1e565b50506001821b6108d4565b5060208310610133831016604e8410600b8410161715613e1a575081810a6108d4565b613e248383613d5c565b8060001904821115613e3857613e38613c1e565b029392505050565b600061152a60ff841683613d9f565b6000816000190483118215151615613e6957613e69613c1e565b50029056fea2646970667358221220779c2b748b1bd61a033d3083d36b785879e7ae6ac8ecb99667720987a170a24064736f6c63430008080033",
  "linkReferences": {},
  "deployedLinkReferences": {}
}