{
  "_format": "hh-sol-artifact-1",
  "contractName": "SToken",
  "sourceName": "contracts/protocol/tokenization/SToken.sol",
  "abi": [
    {
      "anonymous": false,
      "inputs": [
        {
          "indexed": true,
          "internalType": "address",
          "name": "owner",
          "type": "address"
        },
        {
          "indexed": true,
          "internalType": "address",
          "name": "spender",
          "type": "address"
        },
        {
          "indexed": false,
          "internalType": "uint256",
          "name": "value",
          "type": "uint256"
        }
      ],
      "name": "Approval",
      "type": "event"
    },
    {
      "anonymous": false,
      "inputs": [
        {
          "indexed": true,
          "internalType": "address",
          "name": "from",
          "type": "address"
        },
        {
          "indexed": false,
          "internalType": "uint256",
          "name": "value",
          "type": "uint256"
        },
        {
          "indexed": false,
          "internalType": "uint256",
          "name": "balanceIncrease",
          "type": "uint256"
        },
        {
          "indexed": false,
          "internalType": "uint256",
          "name": "index",
          "type": "uint256"
        }
      ],
      "name": "Burn",
      "type": "event"
    },
    {
      "anonymous": false,
      "inputs": [
        {
          "indexed": false,
          "internalType": "uint8",
          "name": "version",
          "type": "uint8"
        }
      ],
      "name": "Initialized",
      "type": "event"
    },
    {
      "anonymous": false,
      "inputs": [
        {
          "indexed": true,
          "internalType": "address",
          "name": "caller",
          "type": "address"
        },
        {
          "indexed": false,
          "internalType": "uint256",
          "name": "value",
          "type": "uint256"
        },
        {
          "indexed": false,
          "internalType": "uint256",
          "name": "balanceIncrease",
          "type": "uint256"
        },
        {
          "indexed": false,
          "internalType": "uint256",
          "name": "index",
          "type": "uint256"
        }
      ],
      "name": "Mint",
      "type": "event"
    },
    {
      "anonymous": false,
      "inputs": [
        {
          "indexed": true,
          "internalType": "address",
          "name": "from",
          "type": "address"
        },
        {
          "indexed": true,
          "internalType": "address",
          "name": "to",
          "type": "address"
        },
        {
          "indexed": false,
          "internalType": "uint256",
          "name": "value",
          "type": "uint256"
        }
      ],
      "name": "Transfer",
      "type": "event"
    },
    {
      "inputs": [],
      "name": "POLEMARCH",
      "outputs": [
        {
          "internalType": "contract IPolemarch",
          "name": "",
          "type": "address"
        }
      ],
      "stateMutability": "view",
      "type": "function"
    },
    {
      "inputs": [
        {
          "internalType": "address",
          "name": "owner",
          "type": "address"
        },
        {
          "internalType": "address",
          "name": "spender",
          "type": "address"
        }
      ],
      "name": "allowance",
      "outputs": [
        {
          "internalType": "uint256",
          "name": "",
          "type": "uint256"
        }
      ],
      "stateMutability": "view",
      "type": "function"
    },
    {
      "inputs": [
        {
          "internalType": "address",
          "name": "spender",
          "type": "address"
        },
        {
          "internalType": "uint256",
          "name": "amount",
          "type": "uint256"
        }
      ],
      "name": "approve",
      "outputs": [
        {
          "internalType": "bool",
          "name": "",
          "type": "bool"
        }
      ],
      "stateMutability": "nonpayable",
      "type": "function"
    },
    {
      "inputs": [],
      "name": "availableUnderlyingSupply",
      "outputs": [
        {
          "internalType": "uint256",
          "name": "",
          "type": "uint256"
        }
      ],
      "stateMutability": "view",
      "type": "function"
    },
    {
      "inputs": [
        {
          "internalType": "address",
          "name": "user",
          "type": "address"
        }
      ],
      "name": "balanceOf",
      "outputs": [
        {
          "internalType": "uint256",
          "name": "",
          "type": "uint256"
        }
      ],
      "stateMutability": "view",
      "type": "function"
    },
    {
      "inputs": [
        {
          "internalType": "address",
          "name": "account",
          "type": "address"
        },
        {
          "internalType": "uint256",
          "name": "amount",
          "type": "uint256"
        },
        {
          "internalType": "uint256",
          "name": "index",
          "type": "uint256"
        }
      ],
      "name": "burn",
      "outputs": [],
      "stateMutability": "nonpayable",
      "type": "function"
    },
    {
      "inputs": [],
      "name": "decimals",
      "outputs": [
        {
          "internalType": "uint8",
          "name": "",
          "type": "uint8"
        }
      ],
      "stateMutability": "view",
      "type": "function"
    },
    {
      "inputs": [
        {
          "internalType": "address",
          "name": "spender",
          "type": "address"
        },
        {
          "internalType": "uint256",
          "name": "subtractedValue",
          "type": "uint256"
        }
      ],
      "name": "decreaseAllowance",
      "outputs": [
        {
          "internalType": "bool",
          "name": "",
          "type": "bool"
        }
      ],
      "stateMutability": "nonpayable",
      "type": "function"
    },
    {
      "inputs": [],
      "name": "getExchequerSafe",
      "outputs": [
        {
          "internalType": "address",
          "name": "",
          "type": "address"
        }
      ],
      "stateMutability": "view",
      "type": "function"
    },
    {
      "inputs": [
        {
          "internalType": "address",
          "name": "user",
          "type": "address"
        }
      ],
      "name": "getPreviousIndex",
      "outputs": [
        {
          "internalType": "uint256",
          "name": "",
          "type": "uint256"
        }
      ],
      "stateMutability": "view",
      "type": "function"
    },
    {
      "inputs": [
        {
          "internalType": "address",
          "name": "spender",
          "type": "address"
        },
        {
          "internalType": "uint256",
          "name": "addedValue",
          "type": "uint256"
        }
      ],
      "name": "increaseAllowance",
      "outputs": [
        {
          "internalType": "bool",
          "name": "",
          "type": "bool"
        }
      ],
      "stateMutability": "nonpayable",
      "type": "function"
    },
    {
      "inputs": [
        {
          "internalType": "contract IPolemarch",
          "name": "polemarch",
          "type": "address"
        },
        {
          "internalType": "string",
          "name": "name",
          "type": "string"
        },
        {
          "internalType": "string",
          "name": "symbol",
          "type": "string"
        },
        {
          "internalType": "uint8",
          "name": "decimals",
          "type": "uint8"
        },
        {
          "internalType": "address",
          "name": "exchequerSafe",
          "type": "address"
        },
        {
          "internalType": "address",
          "name": "underlyingAsset",
          "type": "address"
        }
      ],
      "name": "initialize",
      "outputs": [],
      "stateMutability": "nonpayable",
      "type": "function"
    },
    {
      "inputs": [
        {
          "internalType": "address",
          "name": "account",
          "type": "address"
        },
        {
          "internalType": "uint256",
          "name": "amount",
          "type": "uint256"
        },
        {
          "internalType": "uint256",
          "name": "index",
          "type": "uint256"
        }
      ],
      "name": "mint",
      "outputs": [],
      "stateMutability": "nonpayable",
      "type": "function"
    },
    {
      "inputs": [],
      "name": "name",
      "outputs": [
        {
          "internalType": "string",
          "name": "",
          "type": "string"
        }
      ],
      "stateMutability": "view",
      "type": "function"
    },
    {
      "inputs": [
        {
          "internalType": "address",
          "name": "user",
          "type": "address"
        }
      ],
      "name": "scaledBalanceOf",
      "outputs": [
        {
          "internalType": "uint256",
          "name": "",
          "type": "uint256"
        }
      ],
      "stateMutability": "view",
      "type": "function"
    },
    {
      "inputs": [],
      "name": "scaledTotalSupply",
      "outputs": [
        {
          "internalType": "uint256",
          "name": "",
          "type": "uint256"
        }
      ],
      "stateMutability": "view",
      "type": "function"
    },
    {
      "inputs": [],
      "name": "symbol",
      "outputs": [
        {
          "internalType": "string",
          "name": "",
          "type": "string"
        }
      ],
      "stateMutability": "view",
      "type": "function"
    },
    {
      "inputs": [],
      "name": "totalSupply",
      "outputs": [
        {
          "internalType": "uint256",
          "name": "",
          "type": "uint256"
        }
      ],
      "stateMutability": "view",
      "type": "function"
    },
    {
      "inputs": [
        {
          "internalType": "address",
          "name": "to",
          "type": "address"
        },
        {
          "internalType": "uint256",
          "name": "amount",
          "type": "uint256"
        }
      ],
      "name": "transfer",
      "outputs": [
        {
          "internalType": "bool",
          "name": "",
          "type": "bool"
        }
      ],
      "stateMutability": "nonpayable",
      "type": "function"
    },
    {
      "inputs": [
        {
          "internalType": "address",
          "name": "from",
          "type": "address"
        },
        {
          "internalType": "address",
          "name": "to",
          "type": "address"
        },
        {
          "internalType": "uint256",
          "name": "amount",
          "type": "uint256"
        }
      ],
      "name": "transferFrom",
      "outputs": [
        {
          "internalType": "bool",
          "name": "",
          "type": "bool"
        }
      ],
      "stateMutability": "nonpayable",
      "type": "function"
    },
    {
      "inputs": [
        {
          "internalType": "address",
          "name": "to",
          "type": "address"
        },
        {
          "internalType": "uint256",
          "name": "amount",
          "type": "uint256"
        }
      ],
      "name": "transferUnderlying",
      "outputs": [],
      "stateMutability": "nonpayable",
      "type": "function"
    },
    {
      "inputs": [
        {
          "internalType": "uint256",
          "name": "amount",
          "type": "uint256"
        }
      ],
      "name": "transferUnderlyingToExchequerSafe",
      "outputs": [],
      "stateMutability": "nonpayable",
      "type": "function"
    },
    {
      "inputs": [
        {
          "internalType": "address",
          "name": "user",
          "type": "address"
        },
        {
          "internalType": "uint256",
          "name": "totalDebt",
          "type": "uint256"
        }
      ],
      "name": "withdrawableBalance",
      "outputs": [
        {
          "internalType": "uint256",
          "name": "",
          "type": "uint256"
        }
      ],
      "stateMutability": "view",
      "type": "function"
    },
    {
      "inputs": [
        {
          "internalType": "uint256",
          "name": "totalDebt",
          "type": "uint256"
        }
      ],
      "name": "withdrawableTotalSupply",
      "outputs": [
        {
          "internalType": "uint256",
          "name": "",
          "type": "uint256"
        }
      ],
      "stateMutability": "view",
      "type": "function"
    }
  ],
  "bytecode": "0x608060405234801561001057600080fd5b50611e32806100206000396000f3fe608060405234801561001057600080fd5b50600436106101985760003560e01c80636ae5d4a0116100e3578063a9059cbb1161008c578063dd62ed3e11610066578063dd62ed3e14610344578063e07539861461037d578063f5298aca146103af57600080fd5b8063a9059cbb14610311578063b1bf962d14610324578063d49608df1461032c57600080fd5b806395d89b41116100bd57806395d89b41146102ee5780639664e8fe146102f6578063a457c2d7146102fe57600080fd5b80636ae5d4a0146102a357806370a08231146102c85780637550cc05146102db57600080fd5b806323b872dd11610145578063336d26921161011f578063336d26921461026a578063395093511461027d578063504863cd1461029057600080fd5b806323b872dd1461022f5780632ece993614610242578063313ce5671461025557600080fd5b806318160ddd1161017657806318160ddd146101f35780631d765695146102095780631da24f3e1461021c57600080fd5b806306fdde031461019d578063095ea7b3146101bb578063156e29f6146101de575b600080fd5b6101a56103c2565b6040516101b29190611a6b565b60405180910390f35b6101ce6101c9366004611ad8565b610454565b60405190151581526020016101b2565b6101f16101ec366004611b04565b61046c565b005b6101fb6104e9565b6040519081526020016101b2565b6101fb610217366004611b39565b61059a565b6101fb61022a366004611b52565b6105b8565b6101ce61023d366004611b6f565b6105d8565b6101fb610250366004611ad8565b6105fc565b60675460405160ff90911681526020016101b2565b6101f1610278366004611ad8565b61063b565b6101ce61028b366004611ad8565b610729565b6101f161029e366004611b39565b610768565b6068546001600160a01b03165b6040516001600160a01b0390911681526020016101b2565b6101fb6102d6366004611b52565b61085c565b6101f16102e9366004611c53565b610905565b6101a5610ad9565b6101fb610ae8565b6101ce61030c366004611ad8565b610b82565b6101ce61031f366004611ad8565b610c2c565b6101fb610c3a565b6067546102b09061010090046001600160a01b031681565b6101fb610352366004611d08565b6001600160a01b03918216600090815260346020908152604080832093909416825291909152205490565b6101fb61038b366004611b52565b6001600160a01b03166000908152606560205260409020546001600160801b031690565b6101f16103bd366004611b04565b610c45565b6060603680546103d190611d41565b80601f01602080910402602001604051908101604052809291908181526020018280546103fd90611d41565b801561044a5780601f1061041f5761010080835404028352916020019161044a565b820191906000526020600020905b81548152906001019060200180831161042d57829003601f168201915b5050505050905090565b600033610462818585610d54565b5060019392505050565b60675461010090046001600160a01b0316336001600160a01b0316146104d95760405162461bcd60e51b815260206004820152601860248201527f43414c4c45525f4d5553545f42455f504f4c454d41524348000000000000000060448201526064015b60405180910390fd5b6104e4838383610eac565b505050565b6000806104f560355490565b90508061050457600091505090565b60675460695460405163acaef67960e01b81526001600160a01b0391821660048201526105949261010090049091169063acaef6799060240160206040518083038186803b15801561055557600080fd5b505afa158015610569573d6000803e3d6000fd5b505050506040513d601f19601f8201168201806040525081019061058d9190611d7c565b8290611020565b91505090565b6000806105a5610ae8565b90506105b18382611dab565b9392505050565b6001600160a01b0381166000908152603360205260408120545b92915050565b6000336105e6858285611064565b6105f18585856110f0565b506001949350505050565b6000806106088361059a565b905060006106146104e9565b905061063261062383836112e4565b61062c8761085c565b90611020565b95945050505050565b60675461010090046001600160a01b0316336001600160a01b0316146106a35760405162461bcd60e51b815260206004820152601860248201527f43414c4c45525f4d5553545f42455f504f4c454d41524348000000000000000060448201526064016104d0565b60695460405163a9059cbb60e01b81526001600160a01b038481166004830152602482018490529091169063a9059cbb90604401602060405180830381600087803b1580156106f157600080fd5b505af1158015610705573d6000803e3d6000fd5b505050506040513d601f19601f820116820180604052508101906104e49190611dc2565b3360008181526034602090815260408083206001600160a01b03871684529091528120549091906104629082908690610763908790611de4565b610d54565b60675461010090046001600160a01b0316336001600160a01b0316146107d05760405162461bcd60e51b815260206004820152601860248201527f43414c4c45525f4d5553545f42455f504f4c454d41524348000000000000000060448201526064016104d0565b60695460685460405163a9059cbb60e01b81526001600160a01b0391821660048201526024810184905291169063a9059cbb90604401602060405180830381600087803b15801561082057600080fd5b505af1158015610834573d6000803e3d6000fd5b505050506040513d601f19601f820116820180604052508101906108589190611dc2565b5050565b60675460695460405163acaef67960e01b81526001600160a01b0391821660048201526000926105d292610100909104169063acaef6799060240160206040518083038186803b1580156108af57600080fd5b505afa1580156108c3573d6000803e3d6000fd5b505050506040513d601f19601f820116820180604052508101906108e79190611d7c565b6001600160a01b03841660009081526033602052604090205461062c565b600054610100900460ff16158080156109255750600054600160ff909116105b8061093f5750303b15801561093f575060005460ff166001145b6109b15760405162461bcd60e51b815260206004820152602e60248201527f496e697469616c697a61626c653a20636f6e747261637420697320616c72656160448201527f647920696e697469616c697a656400000000000000000000000000000000000060648201526084016104d0565b6000805460ff1916600117905580156109d4576000805461ff0019166101001790555b6109e087878787611323565b6067546001600160a01b038881166101009092041614610a425760405162461bcd60e51b815260206004820181905260248201527f504f4c454d415243485f4144445245535345535f444f5f4e4f545f4d4154434860448201526064016104d0565b606880546001600160a01b038086167fffffffffffffffffffffffff00000000000000000000000000000000000000009283161790925560698054928516929091169190911790558015610ad0576000805461ff0019169055604051600181527f7f26b83ff96e1f2b6a682f133852f6798a09c465da95921460cefb38474024989060200160405180910390a15b50505050505050565b6060603780546103d190611d41565b6069546040517f70a082310000000000000000000000000000000000000000000000000000000081523060048201526000916001600160a01b0316906370a082319060240160206040518083038186803b158015610b4557600080fd5b505afa158015610b59573d6000803e3d6000fd5b505050506040513d601f19601f82011682018060405250810190610b7d9190611d7c565b905090565b3360008181526034602090815260408083206001600160a01b038716845290915281205490919083811015610c1f5760405162461bcd60e51b815260206004820152602560248201527f45524332303a2064656372656173656420616c6c6f77616e63652062656c6f7760448201527f207a65726f00000000000000000000000000000000000000000000000000000060648201526084016104d0565b6105f18286868403610d54565b6000336104628185856110f0565b6000610b7d60355490565b60675461010090046001600160a01b0316336001600160a01b031614610cad5760405162461bcd60e51b815260206004820152601860248201527f43414c4c45525f4d5553545f42455f504f4c454d41524348000000000000000060448201526064016104d0565b610cb883838361139a565b6001600160a01b03831630146104e45760695460405163a9059cbb60e01b81526001600160a01b038581166004830152602482018590529091169063a9059cbb90604401602060405180830381600087803b158015610d1657600080fd5b505af1158015610d2a573d6000803e3d6000fd5b505050506040513d601f19601f82011682018060405250810190610d4e9190611dc2565b50505050565b6001600160a01b038316610dcf5760405162461bcd60e51b8152602060048201526024808201527f45524332303a20617070726f76652066726f6d20746865207a65726f2061646460448201527f726573730000000000000000000000000000000000000000000000000000000060648201526084016104d0565b6001600160a01b038216610e4b5760405162461bcd60e51b815260206004820152602260248201527f45524332303a20617070726f766520746f20746865207a65726f20616464726560448201527f737300000000000000000000000000000000000000000000000000000000000060648201526084016104d0565b6001600160a01b0383811660008181526034602090815260408083209487168084529482529182902085905590518481527f8c5be1e5ebec7d5bd14f71427d1e84f3dd0314c0f7b2291e5b200ac8c7c3b925910160405180910390a3505050565b6000610eb883836112e4565b905080610f075760405162461bcd60e51b815260206004820152601360248201527f494e56414c49445f4d494e545f414d4f554e540000000000000000000000000060448201526064016104d0565b6001600160a01b0384166000908152603360209081526040808320546065909252822054909190610f429083906001600160801b0316611020565b610f4c8386611020565b610f569190611dab565b9050610f6184611572565b6001600160a01b038716600090815260656020526040902080546fffffffffffffffffffffffffffffffff19166001600160801b0392909216919091179055610fbb86610fad85611572565b6001600160801b03166115f5565b6000610fc78287611de4565b60408051828152602081018590529081018790529091506001600160a01b038816907fb4c03061fb5b7fed76389d5af8f2e0ddb09f8c70d1333abbb62582835e10accb906060015b60405180910390a250505050505050565b600081156b019d971e4fe8401e74000000198390048411151761104257600080fd5b506b033b2e3c9fd0803ce800000091026b019d971e4fe8401e74000000010490565b6001600160a01b038381166000908152603460209081526040808320938616835292905220546000198114610d4e57818110156110e35760405162461bcd60e51b815260206004820152601d60248201527f45524332303a20696e73756666696369656e7420616c6c6f77616e636500000060448201526064016104d0565b610d4e8484848403610d54565b6001600160a01b03831661116c5760405162461bcd60e51b815260206004820152602560248201527f45524332303a207472616e736665722066726f6d20746865207a65726f20616460448201527f647265737300000000000000000000000000000000000000000000000000000060648201526084016104d0565b6001600160a01b0382166111e85760405162461bcd60e51b815260206004820152602360248201527f45524332303a207472616e7366657220746f20746865207a65726f206164647260448201527f657373000000000000000000000000000000000000000000000000000000000060648201526084016104d0565b6001600160a01b038316600090815260336020526040902054818110156112775760405162461bcd60e51b815260206004820152602660248201527f45524332303a207472616e7366657220616d6f756e742065786365656473206260448201527f616c616e6365000000000000000000000000000000000000000000000000000060648201526084016104d0565b6001600160a01b0380851660008181526033602052604080822086860390559286168082529083902080548601905591517fddf252ad1be2c89b69c2b068fc378daa952ba7f163c4a11628f55a4df523b3ef906112d79086815260200190565b60405180910390a3610d4e565b600081156b033b2e3c9fd0803ce80000006002840419048411171561130857600080fd5b506b033b2e3c9fd0803ce80000009190910260028204010490565b600054610100900460ff1661138e5760405162461bcd60e51b815260206004820152602b60248201527f496e697469616c697a61626c653a20636f6e7472616374206973206e6f74206960448201526a6e697469616c697a696e6760a81b60648201526084016104d0565b610d4e848484846116b6565b60006113a683836112e4565b9050806113f55760405162461bcd60e51b815260206004820152601360248201527f494e56414c49445f4255524e5f414d4f554e540000000000000000000000000060448201526064016104d0565b6001600160a01b03841660009081526033602090815260408083205460659092528220549091906114309083906001600160801b0316611020565b61143a8386611020565b6114449190611dab565b905061144f84611572565b6001600160a01b038716600090815260656020526040902080546fffffffffffffffffffffffffffffffff19166001600160801b03929092169190911790556114a98661149b85611572565b6001600160801b0316611772565b808510156115125760006114bd8683611dab565b60408051828152602081018590529081018790529091506001600160a01b038816907fb4c03061fb5b7fed76389d5af8f2e0ddb09f8c70d1333abbb62582835e10accb9060600160405180910390a25061156a565b600061151e8287611dab565b60408051828152602081018590529081018790529091506001600160a01b038816907f743033787f4738ff4d6a7225ce2bd0977ee5f86b91a902a58f5e4d0b297b46449060600161100f565b505050505050565b60006001600160801b038211156115f15760405162461bcd60e51b815260206004820152602760248201527f53616665436173743a2076616c756520646f65736e27742066697420696e203160448201527f323820626974730000000000000000000000000000000000000000000000000060648201526084016104d0565b5090565b6001600160a01b03821661164b5760405162461bcd60e51b815260206004820152601f60248201527f45524332303a206d696e7420746f20746865207a65726f20616464726573730060448201526064016104d0565b806035600082825461165d9190611de4565b90915550506001600160a01b0382166000818152603360209081526040808320805486019055518481527fddf252ad1be2c89b69c2b068fc378daa952ba7f163c4a11628f55a4df523b3ef910160405180910390a35050565b600054610100900460ff166117215760405162461bcd60e51b815260206004820152602b60248201527f496e697469616c697a61626c653a20636f6e7472616374206973206e6f74206960448201526a6e697469616c697a696e6760a81b60648201526084016104d0565b61172b83836118dd565b6067805460ff196101006001600160a01b03881602167fffffffffffffffffffffff0000000000000000000000000000000000000000009091161760ff8316179055610d4e565b6001600160a01b0382166117ee5760405162461bcd60e51b815260206004820152602160248201527f45524332303a206275726e2066726f6d20746865207a65726f2061646472657360448201527f730000000000000000000000000000000000000000000000000000000000000060648201526084016104d0565b6001600160a01b0382166000908152603360205260409020548181101561187d5760405162461bcd60e51b815260206004820152602260248201527f45524332303a206275726e20616d6f756e7420657863656564732062616c616e60448201527f636500000000000000000000000000000000000000000000000000000000000060648201526084016104d0565b6001600160a01b03831660008181526033602090815260408083208686039055603580548790039055518581529192917fddf252ad1be2c89b69c2b068fc378daa952ba7f163c4a11628f55a4df523b3ef910160405180910390a3505050565b600054610100900460ff166119485760405162461bcd60e51b815260206004820152602b60248201527f496e697469616c697a61626c653a20636f6e7472616374206973206e6f74206960448201526a6e697469616c697a696e6760a81b60648201526084016104d0565b6108588282600054610100900460ff166119b85760405162461bcd60e51b815260206004820152602b60248201527f496e697469616c697a61626c653a20636f6e7472616374206973206e6f74206960448201526a6e697469616c697a696e6760a81b60648201526084016104d0565b81516119cb9060369060208501906119db565b5080516104e49060379060208401905b8280546119e790611d41565b90600052602060002090601f016020900481019282611a095760008555611a4f565b82601f10611a2257805160ff1916838001178555611a4f565b82800160010185558215611a4f579182015b82811115611a4f578251825591602001919060010190611a34565b506115f19291505b808211156115f15760008155600101611a57565b600060208083528351808285015260005b81811015611a9857858101830151858201604001528201611a7c565b81811115611aaa576000604083870101525b50601f01601f1916929092016040019392505050565b6001600160a01b0381168114611ad557600080fd5b50565b60008060408385031215611aeb57600080fd5b8235611af681611ac0565b946020939093013593505050565b600080600060608486031215611b1957600080fd5b8335611b2481611ac0565b95602085013595506040909401359392505050565b600060208284031215611b4b57600080fd5b5035919050565b600060208284031215611b6457600080fd5b81356105b181611ac0565b600080600060608486031215611b8457600080fd5b8335611b8f81611ac0565b92506020840135611b9f81611ac0565b929592945050506040919091013590565b634e487b7160e01b600052604160045260246000fd5b600082601f830112611bd757600080fd5b813567ffffffffffffffff80821115611bf257611bf2611bb0565b604051601f8301601f19908116603f01168101908282118183101715611c1a57611c1a611bb0565b81604052838152866020858801011115611c3357600080fd5b836020870160208301376000602085830101528094505050505092915050565b60008060008060008060c08789031215611c6c57600080fd5b8635611c7781611ac0565b9550602087013567ffffffffffffffff80821115611c9457600080fd5b611ca08a838b01611bc6565b96506040890135915080821115611cb657600080fd5b50611cc389828a01611bc6565b945050606087013560ff81168114611cda57600080fd5b92506080870135611cea81611ac0565b915060a0870135611cfa81611ac0565b809150509295509295509295565b60008060408385031215611d1b57600080fd5b8235611d2681611ac0565b91506020830135611d3681611ac0565b809150509250929050565b600181811c90821680611d5557607f821691505b60208210811415611d7657634e487b7160e01b600052602260045260246000fd5b50919050565b600060208284031215611d8e57600080fd5b5051919050565b634e487b7160e01b600052601160045260246000fd5b600082821015611dbd57611dbd611d95565b500390565b600060208284031215611dd457600080fd5b815180151581146105b157600080fd5b60008219821115611df757611df7611d95565b50019056fea2646970667358221220ed5d75f8808aacf0442ddd86e1c1482ff35debaca4226fe38d3a9c798a17033c64736f6c63430008080033",
  "linkReferences": {},
  "deployedLinkReferences": {}
}